:0400000045EF00F0D8
:100008001682D9CF01F0DACF02F09DAA0EEF00F0E8
:1000180010EF00F03FEF00F09EAA15EF00F017EF89
:1000280000F03FEF00F0AECF03F01550D8A41FEF5B
:1000380000F021EF00F03FEF00F02E0E0318D8B4C7
:1000480028EF00F02AEF00F034EF00F00E50100F08
:10005800D96EDA6A03C0DFFF0E4A0F2A3FEF00F0BD
:100068000E50100FD96EDA6ADF6A010E156E000E97
:100078000F6E000E0E6E02C0DAFF01C0D9FF169295
:06008800110067EF09F012
:1010000000414F464600414F4E00414200414300DF
:0110100000DF
:1010120057EC09F076EC09F0000E0D6E000E096E29
:10102200000E0A6E000E0B6E000E0C6E1504D8A494
:101032001DEF08F01FEF08F088EF08F0100E046EA5
:10104200060E056E08EC09F004500510D8A42CEF2A
:1010520008F02EEF08F032EF08F0000E0C6E000ED2
:101062000D6E100E046E010E056E08EC09F00450B0
:101072000510D8A43FEF08F041EF08F045EF08F063
:10108200010E0C6E010E0D6E100E046E0D0E056E2D
:1010920008EC09F004500510D8A452EF08F054EF00
:1010A20008F058EF08F0000E0D6E000E096E100EDB
:1010B200046E0A0E056E08EC09F004500510D8A45F
:1010C20065EF08F067EF08F06BEF08F0000E0D6EA9
:1010D200010E096E410E1018D8A472EF08F074EFD9
:1010E20008F086EF08F0530E1118D8A47BEF08F031
:1010F2007DEF08F086EF08F0000E0D6E1250D00F53
:101102000A6E010E096E010E0B6E000E156E0C506A
:10111200D8B48EEF08F090EF08F093EF08F00C507F
:1011220037EC09F00C50D8A499EF08F09BEF08F0C7
:1011320017EF08F00950D8B4A1EF08F0A3EF08F0B8
:10114200BAEF08F0290E086E960E076E7F0EE82E93
:10115200FED7072EFCD7082EFAD700000D50D8B4C0
:10116200B5EF08F0B8EF08F0010EB9EF08F0000E85
:101172000D6E0D5037EC09F00A50D8B4C3EF08F0E9
:10118200C5EF08F0E4EF08F00D50D8B4CBEF08F04B
:10119200CDEF08F0E4EF08F00B50D8B4D3EF08F02D
:1011A200D5EF08F0E4EF08F00A06150E086E4B0EB4
:1011B200076EBE0EE82EFED7072EFCD7082EFAD7F2
:1011C20000D017EF08F00A50D8A4EAEF08F0ECEFCD
:1011D20008F004EF09F00D50D8B4F2EF08F0F4EF84
:1011E20008F004EF09F00B50D8B4FAEF08F0FCEF66
:1011F20008F004EF09F0000E096E000E0D6E000EED
:101202000B6E17EF08F017EF08F045EF00F00CEF48
:1012120009F0042A052A0450D96EDA6ADF50066EF4
:1012220005C0F6FF0800F5500618D8A41BEF09F018
:101232001DEF09F028EF09F00450D96EDA6ADF5089
:10124200D8A426EF09F028EF09F00AEF09F00450BC
:10125200D96EDA6ADF50066E05C0F6FF0800F55057
:10126200065C046E056AD8A005061200046E04B07E
:1012720002D08C9401D08C8404B002D08C9601D020
:101282008C8604B002D08B9801D08B8804B002D037
:101292008C9801D08C8804B002D08C9A01D08C8AB0
:1012A20004B002D08C9C01D08C8C1200959495963F
:1012B20094989598959A959C000E0F013A6F8C849C
:1012C2008C868B888C888C8A8C8C120000EE0EF0B7
:1012D200080EEE6AE806FDE116901692000EF86E10
:1012E200100EF76E000109EF08F0828C828E330E29
:1012F200AF6EAC98AB8EAC8AAB889D8AF28CF28EC4
:021302001200D7
:020000040030CA
:04000000FF321F3C70
:00000001FF
